:100000000C9462000C948A000C948A000C948A0070
:100010000C948A000C948A000C948A000C948A0038
:100020000C948A000C948A000C948A000C948A0028
:100030000C948A000C948A000C948A000C948A0018
:100040000C9431030C948A000C948A000C948A005E
:100050000C948A000C948A000C948A000C948A00F8
:100060000C948A000C948A000000000024002700F1
:100070002A0000000000250028002B0000000000DE
:1000800023002600290004040404040404040202DA
:100090000202020203030303030301020408102007
:1000A0004080010204081020010204081020000012
:1000B0000008000201000003040700000000000027
:1000C00000002F0511241FBECFEFD8E0DEBFCDBF4B
:1000D00011E0A0E0B1E0EAEAFAE002C005900D927A
:1000E000A832B107D9F721E0A8E2B1E001C01D9222
:1000F000AB34B207E1F710E0C2E6D0E004C02197CC
:10010000FE010E944D05C136D107C9F70E947B034D
:100110000C9453050C940000AF92BF92CF92DF92E3
:10012000EF92FF920F931F93CF93DF936C017B01AC
:100130008B01040F151FEB015E01AE18BF08C0173D
:10014000D10759F06991D601ED91FC910190F081B0
:10015000E02DC6010995892B79F7C501DF91CF9173
:100160001F910F91FF90EF90DF90CF90BF90AF90D5
:100170000895833081F028F4813099F08230A9F01D
:1001800008958730A9F08830C9F08430B1F48091A7
:1001900080008F7D03C0809180008F7780938000E6
:1001A000089584B58F7784BD089584B58F7DFBCF86
:1001B0008091B0008F778093B00008958091B00057
:1001C0008F7DF9CFCF93DF93282F30E0F901E255EF
:1001D000FF4F8491F901E656FF4FD491F901EA5798
:1001E000FF4FC491CC23A1F081110E94B900EC2FE4
:1001F000F0E0EE0FFF1FE458FF4FA591B491EC9192
:10020000ED2381E090E009F480E0DF91CF91089543
:1002100080E090E0FACF1F93CF93DF93282F30E058
:10022000F901E255FF4F8491F901E656FF4FD49151
:10023000F901EA57FF4FC491CC23A9F0162F811181
:100240000E94B900EC2FF0E0EE0FFF1FEE58FF4FB9
:10025000A591B4918FB7F894EC91111108C0D09585
:10026000DE23DC938FBFDF91CF911F910895DE2BAA
:10027000F8CFCF93DF9390E0FC01E656FF4F249137
:100280008A579F4FFC0184918823D1F090E0880F1A
:10029000991FFC01E859FF4FA591B491FC01EE585C
:1002A000FF4FC591D491623071F49FB7F8943C919F
:1002B000822F809583238C93E8812E2B28839FBFE8
:1002C000DF91CF9108958FB7F894EC912E2B2C935A
:1002D0008FBFF6CF3FB7F89480912D0190912E01FA
:1002E000A0912F01B091300126B5A89B05C02F3FEA
:1002F00019F00196A11DB11D3FBFBA2FA92F982F4C
:100300008827BC01CD01620F711D811D911D42E046
:10031000660F771F881F991F4A95D1F708958F920E
:100320009F92AF92BF92CF92DF92EF92FF920E9484
:100330006A014B015C018AE0C82ED12CE12CF12C22
:100340000E946A01681979098A099B09683E73400D
:1003500081059105A8F321E0C21AD108E108F1084E
:1003600088EE880E83E0981EA11CB11CC114D10434
:10037000E104F10429F7FF90EF90DF90CF90BF9058
:10038000AF909F908F900895089590E080E0089539
:10039000FC0101900020E9F73197AF01481B590B90
:1003A000BC0183E391E00C948C00CF93DF93EC01CC
:1003B00060E08E810E940B0161E08E810E940B0142
:1003C00060E08E810E940B018BE891E00197F1F7CC
:1003D000DF91CF910895CF92DF92EF92FF920F932A
:1003E0001F93CF93DF936C017C0187E0E80EF11C33
:1003F000D0E0C0E0062F10E0B8010C2E02C07595C9
:1004000067950A94E2F76170F70181917F010E947C
:100410000B012196C430D10579F7C601DF91CF9148
:100420001F910F91FF90EF90DF90CF900C94D5012A
:10043000CF92DF92EF92FF920F931F93CF93DF93B0
:10044000EC01F62E642F8C810E940B018D818F3F71
:1004500019F060E00E940B010F2D10E08F8584FFE2
:1004600025C06E0187E0C80ED11CF12CE12CB8012B
:100470000E2C02C0759567950A94E2F76170F6013B
:1004800081916F010E940B01FFEFEF1AFF0A88E0D4
:10049000E816F10461F7CE01DF91CF911F910F9122
:1004A000FF90EF90DF90CF900C94D501B80184E0DD
:1004B000759567958A95E1F7CE010E94EB016F2D46
:1004C000CE01DF91CF911F910F91FF90EF90DF90C0
:1004D000CF900C94EB0140E0682F83E391E00C9403
:1004E0001802CF93DF93823029F4909142019860F3
:1004F00090934201809346011092470180E48093DB
:10050000480180E18093490180E580934A0161E0E0
:10051000809137010E943901809138018F3F19F095
:1005200061E00E94390161E0809139010E94390146
:10053000C3E3D1E09E01235331408091420184FD09
:100540000BC084E090E021962817390744F461E05D
:100550008E810E943901EECF88E090E0F4CF8BE3EA
:100560009DE00197F1F760E0809137010E940B0157
:1005700060E0809139010E940B01809138018F3F2A
:1005800019F060E00E940B018091420184FD39C0A6
:1005900063E083E391E00E94EB01CBE4D6E4CE017B
:1005A0000197F1F763E083E391E00E94EB0121976B
:1005B000F1F763E083E391E00E94EB0183E592E0D1
:1005C0000197F1F762E083E391E00E94EB018091F3
:1005D000420180620E946B0284E0809343018CE0C0
:1005E0000E946B0281E00E946B028BE39FE1019706
:1005F000F1F782E08093440186E0DF91CF910C9483
:100600006B0280620E946B028BE496E40197F1F723
:100610008091420180620E946B0283E592E0019723
:10062000F1F78091420180620E946B02D0CF8E5F11
:10063000E0914601E23068F4E150F0E0ED5CFE4FFD
:100640009489890F80680E946B0286E291E00C9485
:10065000C801E1E0F2CF41E00E94180281E090E0A1
:1006600008951F920F920FB60F9211242F933F936C
:100670008F939F93AF93BF938091290190912A010B
:10068000A0912B01B0912C013091280123E0230F80
:100690002D3758F50196A11DB11D20932801809397
:1006A000290190932A01A0932B01B0932C018091F2
:1006B0002D0190912E01A0912F01B0913001019652
:1006C000A11DB11D80932D0190932E01A0932F01A8
:1006D000B0933001BF91AF919F918F913F912F9136
:1006E0000F900FBE0F901F90189526E8230F0296CB
:1006F000A11DB11DD2CF789484B5826084BD84B52C
:10070000816084BD85B5826085BD85B5816085BD0C
:1007100080916E00816080936E00109281008091C4
:10072000810082608093810080918100816080934C
:100730008100809180008160809380008091B10071
:1007400084608093B1008091B00081608093B0009C
:1007500080917A00846080937A0080917A00826030
:1007600080937A0080917A00816080937A008091F2
:100770007A00806880937A001092C10062E088E07D
:100780000E94390162E089E00E94390162E086E05E
:100790000E94390162E087E00E94390182E00E94F4
:1007A000710287E191E00E94C80121E3622E00E01E
:1007B00010E037E0E32EF12C44E0C42ED12C55E0BC
:1007C000A52EB12C62E0862E912C70E3772E83E368
:1007D000582E92E3492EE0914601E23008F013C111
:1007E000E150F0E0ED5CFE4F84898D5F80680E94EF
:1007F0006B0280E091E00E94C8010E948F0187E0B7
:100800000E94E200892B91F50E948F0187E00E94EF
:10081000E200892BD9F38091310190913201019648
:10082000181619060CF0F1C0909332018093310133
:100830008091310190913201039721F4D0923201DD
:10084000C09231018091310190913201069721F4DB
:10085000F0923201E09231018091310190913201A8
:100860000B9724F0109232011092310186E00E9421
:10087000E200892BF1F40E948F0186E00E94E200E1
:10088000892BD9F380913101909132010197833006
:10089000910509F4BFC0909332018093310180919A
:1008A000310190913201069721F4B0923201A09269
:1008B000310189E00E94E200C0913101D091320102
:1008C000892B09F054C01C161D060CF050C00E9464
:1008D0008F0189E00E94E200892BD9F3FE01E150EB
:1008E000FF4F8081803314F08F5F808380910001FF
:1008F000843314F05092000180910001833369F435
:100900008091010182334CF08091040160920101D9
:10091000709200018F5F80930401809101018A33FE
:100920003CF0809100018F5F809300017092010183
:1009300080910301823314F07092030180910301CE
:10094000813369F49091040193334CF08093040156
:1009500070920301809109018F5F8093090180915A
:1009600004018A3324F0709204016092030188E04C
:100970000E94E200892BA1F51C161D068CF50E9431
:100980008F0188E00E94E200892BD9F3FE01E1503B
:10099000FF4F80819FEC980F993010F48150808335
:1009A00080910001843314F0509200018091000185
:1009B000833331F480910101823314F0609201019C
:1009C00080910301823314F060920301809103014E
:1009D000813331F480910401833314F04092040197
:1009E000FE013197EA30F105F0F4E750FB4F0C942B
:1009F0004D050F051A0513051D05200513052305D3
:100A0000260529052C05E1E0ECCE1092320110926A
:100A100031010ECF909232018092310140CF81E0BE
:100A200090E00E9417030115110509F4D4CE0E942D
:100A30000000CDCE82E090E0F4CF84E090E0F1CFF2
:100A400085E090E0EECF87E090E0EBCF88E090E0AB
:100A5000E8CF89E090E0E5CF8AE090E0E2CFE3E301
:100A6000F1E0138212828FE091E0918380838CE029
:100A700084838FEF85838BE0868385E0878384E0A2
:100A8000808783E0818782E08287138614861586BB
:100A90001686178681E00C947102EE0FFF1F0590F9
:0A0AA000F491E02D0994F894FFCFC3
:100AAA0030302F30302F3030303000000000002B33
:100ABA00038C00C501C40120202020202044617439
:080ACA006520202020202000FF
:00000001FF
