:100000000C945D000C9485000C9485000C94850084
:100010000C9485000C9485000C9485000C9485004C
:100020000C9485000C9485000C9485000C9485003C
:100030000C9485000C9485000C9485000C9485002C
:100040000C941F040C9485000C94ED030C94C703CE
:100050000C9485000C9485000C9485000C9485000C
:100060000C9485000C94850000000008000201003B
:100070000003040700000000000000000000000072
:10008000250028002B0000000000240027002A0083
:10009000040404040404040402020202020203032E
:1000A0000303030301020408102040800102040836
:1000B0001020010204081020690411241FBECFEF94
:1000C000D8E0DEBFCDBF11E0A0E0B1E0ECEBFCE09A
:1000D00002C005900D92A033B107D9F721E0A0E34B
:1000E000B1E001C01D92A03FB207E1F710E0CDE5FD
:1000F000D0E004C02197FE010E945606CC35D107FE
:10010000C9F70E94B3040C945C060C94000090E0C4
:10011000FC01EC55FF4F249180579F4FFC018491C7
:10012000882399F090E0880F991FFC01EA57FF4F50
:10013000A591B491FC01E458FF4F859194918FB73C
:10014000F894EC91E22BEC938FBF0895AF92BF929D
:10015000CF92DF92EF92FF920F931F93CF93DF9393
:100160006C017B018B01040F151FEB015E01AE18C2
:10017000BF08C017D10759F06991D601ED91FC91E4
:100180000190F081E02DC6010995892B79F7C50111
:10019000DF91CF911F910F91FF90EF90DF90CF9063
:1001A000BF90AF900895FC01538D448D252F30E012
:1001B000842F90E0821B930B541710F0CF96089574
:1001C00001970895FC01918D828D981761F0A28DA1
:1001D000AE0FBF2FB11D5D968C91928D9F5F9F7367
:1001E000928F90E008958FEF9FEF0895FC01918D1D
:1001F000828D981731F0828DE80FF11D858D90E08A
:1002000008958FEF9FEF0895FC01918D228D892F26
:1002100090E0805C9F4F821B91098F73992708950E
:100220008BE391E00E94040121E0892B09F420E096
:10023000822F089580E090E0892B29F00E94100120
:1002400081110C9400000895FC01A48DA80FB92F12
:10025000B11DA35ABF4F2C91848D90E001968F73EE
:100260009927848FA689B7892C93A089B1898C910D
:10027000837080648C93938D848D981306C002885C
:10028000F389E02D80818F7D80830895EF92FF9226
:100290000F931F93CF93DF93EC0181E0888F9B8DA9
:1002A0008C8D98131AC0E889F989808185FF15C063
:1002B0009FB7F894EE89FF896083E889F989808186
:1002C0008370806480839FBF81E090E0DF91CF9155
:1002D0001F910F91FF90EF900895F62E0B8D10E077
:1002E0000F5F1F4F0F731127E02E8C8D8E110CC0E6
:1002F0000FB607FCFACFE889F989808185FFF5CF31
:10030000CE010E942401F1CFEB8DEC0FFD2FF11DEA
:10031000E35AFF4FF0829FB7F8940B8FEA89FB896D
:1003200080818062CFCFCF93DF93EC01888D8823CB
:10033000B9F0AA89BB89E889F9898C9185FD03C048
:10034000808186FD0DC00FB607FCF7CF8C9185FF2D
:10035000F2CF808185FFEDCFCE010E942401E9CF4D
:10036000DF91CF91089590E0FC01E859FF4F24916F
:10037000FC01EC55FF4F3491FC01E057FF4FE49135
:10038000EE23C9F0222339F0233001F1A8F4213003
:1003900019F1223029F1F0E0EE0FFF1FE458FF4F72
:1003A000A591B4918FB7F894EC91611126C0309566
:1003B0003E233C938FBF08952730A9F02830C9F021
:1003C000243049F7809180008F7D03C080918000A8
:1003D0008F7780938000DFCF84B58F7784BDDBCFAC
:1003E00084B58F7DFBCF8091B0008F778093B00074
:1003F000D2CF8091B0008F7DF9CF3E2BDACF3FB7BF
:10040000F8948091350190913601A0913701B09117
:10041000380126B5A89B05C02F3F19F00196A11DF4
:10042000B11D3FBFBA2FA92F982F8827BC01CD013E
:10043000620F711D811D911D42E0660F771F881F9D
:10044000991F4A95D1F70895089590E080E00895A6
:10045000CF93DF93EC0160E08E810E94B30161E0F5
:100460008E810E94B30160E08E810E94B3018BE80F
:1004700091E00197F1F7DF91CF910895CF92DF924C
:10048000EF92FF920F931F93CF93DF936C017C0148
:1004900087E0E80EF11CD0E0C0E0062F10E0B801C4
:1004A0000C2E02C0759567950A94E2F76170F7010A
:1004B00081917F010E94B3012196C430D10579F763
:1004C000C601DF91CF911F910F91FF90EF90DF90C8
:1004D000CF900C942802CF92DF92EF92FF920F936D
:1004E0001F93CF93DF93EC01F62E642F8C810E9433
:1004F000B3018D818F3F19F060E00E94B3010F2D91
:1005000010E08F8584FF25C06E0187E0C80ED11CE6
:10051000F12CE12CB8010E2C02C0759567950A9458
:10052000E2F76170F60181916F010E94B301FFEF64
:10053000EF1AFF0A88E0E816F10461F7CE01DF91B7
:10054000CF911F910F91FF90EF90DF90CF900C947F
:100550002802B80184E0759567958A95E1F7CE0188
:100560000E943E026F2DCE01DF91CF911F910F911E
:10057000FF90EF90DF90CF900C943E0240E0682F08
:1005800088ED91E00C946B02CF93DF93823029F4D5
:100590009091E70198609093E7018093EB011092AE
:1005A000EC0180E48093ED0180E18093EE0180E531
:1005B0008093EF018091DC010E9487008091DD0132
:1005C0008F3F11F00E9487008091DE010E9487001A
:1005D000C8EDD1E09E01285D31408091E70184FDA6
:1005E0000AC084E090E02196281739073CF48E81F8
:1005F0000E948700EFCF88E090E0F5CF8BE39DE08D
:100600000197F1F760E08091DC010E94B30160E0A6
:100610008091DE010E94B3018091DD018F3F19F0CE
:1006200060E00E94B3018091E70184FD39C063E07E
:1006300088ED91E00E943E02CBE4D6E4CE01019722
:10064000F1F763E088ED91E00E943E022197F1F717
:1006500063E088ED91E00E943E0283E592E001971D
:10066000F1F762E088ED91E00E943E028091E7019F
:1006700080620E94BE0284E08093E8018CE00E94C8
:10068000BE0281E00E94BE028BE39FE10197F1F779
:1006900082E08093E90186E0DF91CF910C94BE0265
:1006A00080620E94BE028BE496E40197F1F780918C
:1006B000E70180620E94BE0283E592E00197F1F7B4
:1006C0008091E70180620E94BE02D0CF41E00E948B
:1006D0006B0281E090E00895FB0101900020E9F7B2
:1006E0003197AF01461B570BDC01ED91FC91028065
:1006F000F381E02D09948F929F92AF92BF92EF9277
:10070000FF920F931F93CF93DF93CDB7DEB7A197DF
:100710000FB6F894DEBF0FBECDBF7C01FA01CB014E
:1007200019A2223008F42AE08E010F5D1F4F822E9D
:10073000912CB12CA12CBF01A50194010E9425068A
:10074000F901CA016A300CF5605DD8016E938D0124
:10075000232B242B252B79F790E080E0109721F0B4
:10076000BD01C7010E946C03A1960FB6F894DEBFCD
:100770000FBECDBFDF91CF911F910F91FF90EF90F2
:10078000BF90AF909F908F900895695CDECF1F92CD
:100790000F920FB60F9211242F933F934F935F93B5
:1007A0006F937F938F939F93AF93BF93EF93FF9339
:1007B0008BE391E00E942401FF91EF91BF91AF91F3
:1007C0009F918F917F916F915F914F913F912F9169
:1007D0000F900FBE0F901F9018951F920F920FB69B
:1007E0000F9211242F938F939F93EF93FF93E09198
:1007F0004B01F0914C018081E0915101F091520147
:1008000082FD1BC09081809154018F5F8F73209176
:100810005501821741F0E0915401F0E0E55CFE4F94
:10082000958F80935401FF91EF919F918F912F911C
:100830000F900FBE0F901F9018958081F4CF1F92DC
:100840000F920FB60F9211242F933F938F939F9384
:10085000AF93BF938091310190913201A091330108
:10086000B09134013091300123E0230F2D3758F53A
:100870000196A11DB11D2093300180933101909309
:100880003201A0933301B0933401809135019091EE
:100890003601A0913701B09138010196A11DB11D1B
:1008A0008093350190933601A0933701B0933801BE
:1008B000BF91AF919F918F913F912F910F900FBE5C
:1008C0000F901F90189526E8230F0296A11DB11DC9
:1008D000D2CFEBE3F1E01382128288EE93E0A0E046
:1008E000B0E084839583A683B78384E091E091830D
:1008F000808385EC90E09587848784EC90E09787EF
:10090000868780EC90E0918B808B81EC90E0938BDC
:10091000828B82EC90E0958B848B86EC90E0978BB9
:10092000868B118E128E138E148EE8EDF1E01382F9
:10093000128286E191E0918380838CE084838FEF43
:1009400085838BE0868385E0878384E0808783E0EE
:10095000818782E08287138614861586168617861D
:1009600081E00C94C402789484B5826084BD84B51F
:10097000816084BD85B5826085BD85B5816085BD9A
:1009800080916E00816080936E0010928100809152
:1009900081008260809381008091810081608093DA
:1009A0008100809180008160809380008091B100FF
:1009B00084608093B1008091B00081608093B0002A
:1009C00080917A00846080937A0080917A008260BE
:1009D00080937A0080917A00816080937A00809180
:1009E0007A00806880937A001092C100E0914B01F8
:1009F000F0914C0182E08083E0914701F091480141
:100A00001082E0914901F0914A018FEC80831092AD
:100A10005301E0914F01F091500186E08083E09115
:100A20004D01F0914E01808180618083E0914D0104
:100A3000F0914E01808188608083E0914D01F091BA
:100A40004E01808180688083E0914D01F0914E01DC
:100A500080818F7D808382E00E94C4026EE171E01C
:100A600088ED91E00E946C0310E499E0C92E9CEFA0
:100A7000D92EEE24EA94FE2CC0E0D0E06EE171E0C5
:100A80008BE391E00E946C03E091EB01E23008F00F
:100A9000AEC0E150F0E0E852FE4F848980680E94C9
:100AA000BE0210937C0080917A00806480937A006B
:100AB00080917A0086FDFCCF8091780020917900AA
:100AC000322F282F032E000C440B550B275F334089
:100AD00041095109A4E6B0E00E941A06A701960157
:100AE0000E94FB0549015A0130933A0120933901D4
:100AF0002AE0BA01A401B7FE0EC041E06DE288ED24
:100B000091E00E946B0244275527BA014819590900
:100B10006A097B092AE088ED91E00E947B03E0915D
:100B2000EB01E23008F065C0E150F0E0E852FE4F22
:100B300084898D5F80680E94BE026AE271E088ED60
:100B400091E00E946C038090390190903A01092C49
:100B5000000CAA08BB082AE0B501A401B7FE0DC02D
:100B60006DE28BE391E00E94460144275527BA01CC
:100B7000481959096A097B092AE08BE391E00E9430
:100B80007B036DE271E08BE391E00E946C030E94B5
:100B9000FF012B013C0184EF882E99249394A12C12
:100BA000B12C0E94FF016419750986099709683EF6
:100BB000734081059105A8F321E0821A9108A108EC
:100BC000B10888EE480E83E0581E611C711C811428
:100BD0009104A104B10429F7209709F44FCF0E9492
:100BE0001001882309F44ACF0E94000047CFE1E0BA
:100BF00051CFE1E09ACF052E97FB1EF400940E949E
:100C0000120657FD07D00E94250607FC03D04EF4BC
:100C10000C94120650954095309521953F4F4F4FBB
:100C20005F4F089590958095709561957F4F8F4F98
:100C30009F4F08950E944706A59F900DB49F900D69
:100C4000A49F800D911D11240895A1E21A2EAA1BC4
:100C5000BB1BFD010DC0AA1FBB1FEE1FFF1FA2176C
:100C6000B307E407F50720F0A21BB30BE40BF50B69
:100C7000661F771F881F991F1A9469F760957095F2
:100C8000809590959B01AC01BD01CF010895A29F75
:100C9000B001B39FC001A39F700D811D1124911D50
:100CA000B29F700D811D1124911D0895EE0FFF1F3D
:0C0CB0000590F491E02D0994F894FFCF1A
:100CBC00000000004601A600D30093010401E200ED
:100CCC00F600000000006603A600250224027468EA
:100CDC0065204D6F6973747572652025000D0A00CF
:00000001FF
