:020000040000FA
:100000000C9462000C948A000C948A000C948A0070
:100010000C948A000C948A000C948A000C948A0038
:100020000C948A000C948A000C948A000C948A0028
:100030000C948A000C948A000C948A000C948A0018
:100040000C940D050C948A000C94DB040C94B504FC
:100050000C948A000C948A000C948A000C948A00F8
:100060000C948A000C948A000000000024002700F1
:100070002A0000000000250028002B0000000000DE
:1000800023002600290004040404040404040202DA
:100090000202020203030303030301020408102007
:1000A0004080010204081020010204081020000012
:1000B0000008000201000003040700000000000027
:1000C0000000570511241FBECFEFD8E0DEBFCDBF23
:1000D00011E0A0E0B1E0ECECF0E102C005900D927F
:1000E000AA37B107D9F722E0AAE7B1E001C01D9213
:1000F000A23BB207E1F710E0C2E6D0E004C02197CE
:10010000FE010E945E08C136D107C9F70E941106A0
:100110000C9464080C94000096E0899FD00111248F
:10012000A55DBD4F90967C936E935F9791E09196FD
:100130009C939197E0919802F09199029091970287
:10014000992339F0309751F0811108C0809147020E
:100150000994309719F05C968C91FACF0895CF925C
:10016000DF92EF92FF920F931F9396E0899FF00129
:100170001124E55DFD4F11A2278D30A121303105FD
:1001800051F178F02230310509F451C023303105A6
:1001900009F452C01F910F91FF90EF90DF90CF9024
:1001A00008956623B9F361E070E00E948C002FB7D8
:1001B000F89480918A0190918B01A0918C01B0916B
:1001C0008D012FBF8093830290938402A0938502B8
:1001D000B0938602DFCF9FB7F894C0908A01D09089
:1001E0008B01E0908C01F0908D019FBF0091830204
:1001F000109184022091850230918602C01AD10AA2
:10020000E20AF30A009195021091960230E020E094
:100210000C151D052E053F0550F462E070E01F919E
:100220000F91FF90EF90DF90CF900C948C006111B4
:10023000B1CF63E070E0F3CF70E060E0F0CFAF9259
:10024000BF92CF92DF92EF92FF920F931F93CF93C3
:10025000DF936C017B018B01040F151FEB015E0125
:10026000AE18BF08C017D10759F06991D601ED91BA
:10027000FC910190F081E02DC6010995892B79F759
:10028000C501DF91CF911F910F91FF90EF90DF900B
:10029000CF90BF90AF900895FC01538D448D252FD2
:1002A00030E0842F90E0821B930B541710F0CF9610
:1002B000089501970895FC01918D828D981761F042
:1002C000A28DAE0FBF2FB11D5D968C91928D9F5F59
:1002D0009F73928F90E008958FEF9FEF0895FC0138
:1002E000918D828D981731F0828DE80FF11D858DEB
:1002F00090E008958FEF9FEF0895FC01918D228D7E
:10030000892F90E0805C9F4F821B91098F73992702
:1003100008958EE891E00E947D0121E0892B09F487
:1003200020E0822F089580E090E0892B29F00E9440
:10033000890181110C9400000895FC01A48DA80F7F
:10034000B92FB11DA35ABF4F2C91848D90E0019617
:100350008F739927848FA689B7892C93A089B18937
:100360008C91837080648C93938D848D981306C0D8
:100370000288F389E02D80818F7D80830895EF923C
:10038000FF920F931F93CF93DF93EC0181E0888F4F
:100390009B8D8C8D98131AC0E889F989808185FF1F
:1003A00015C09FB7F894EE89FF896083E889F989C1
:1003B00080818370806480839FBF81E090E0DF91C3
:1003C000CF911F910F91FF90EF900895F62E0B8D16
:1003D00010E00F5F1F4F0F731127E02E8C8D8E11D1
:1003E0000CC00FB607FCFACFE889F989808185FF38
:1003F000F5CFCE010E949D01F1CFEB8DEC0FFD2FCB
:10040000F11DE35AFF4FF0829FB7F8940B8FEA89F2
:10041000FB8980818062CFCFCF93DF93EC01888D01
:100420008823B9F0AA89BB89E889F9898C9185FD6F
:1004300003C0808186FD0DC00FB607FCF7CF8C91FD
:1004400085FFF2CF808185FFEDCFCE010E949D0117
:10045000E9CFDF91CF910895833081F028F4813086
:1004600099F08230A9F008958730A9F08830C9F05A
:100470008430B1F4809180008F7D03C08091800032
:100480008F7780938000089584B58F7784BD089519
:1004900084B58F7DFBCF8091B0008F778093B000C3
:1004A00008958091B0008F7DF9CFCF93DF93282FEF
:1004B00030E0F901E255FF4F8491F901E656FF4F14
:1004C000D491F901EA57FF4FC491CC23A1F08111D7
:1004D0000E942C02EC2FF0E0EE0FFF1FE458FF4FBC
:1004E000A591B491EC91ED2381E090E009F480E0D6
:1004F000DF91CF91089580E090E0FACF862F0C94A1
:1005000055021F93CF93DF93282F30E0F901E25576
:10051000FF4F8491F901E656FF4FD491F901EA5754
:10052000FF4FC491CC23A9F0162F81110E942C02F9
:10053000EC2FF0E0EE0FFF1FEE58FF4FA591B491A6
:100540008FB7F894EC91111108C0D095DE23DC939D
:100550008FBFDF91CF911F910895DE2BF8CF862FAB
:10056000642F0C948102CF93DF9390E0FC01E65658
:10057000FF4F24918A579F4FFC0184918823C9F033
:1005800090E0880F991FFC01E859FF4FA591B491A5
:10059000FC01EE58FF4FC591D49161110DC09FB77A
:1005A000F8948C91209582238C938881282328832A
:1005B0009FBFDF91CF910895623051F49FB7F894B7
:1005C0003C91822F809583238C93E8812E2BEFCF53
:1005D0008FB7F894EC912E2B2C938FBFEACF862FF8
:1005E000642F0C94B3023FB7F89480917B019091F3
:1005F0007C01A0917D01B0917E0126B5A89B05C02C
:100600002F3F19F00196A11DB11D3FBFBA2FA92F91
:10061000982F8827BC01CD01620F711D811D911D8E
:1006200042E0660F771F881F991F4A95D1F70895FA
:100630008F929F92AF92BF92CF92DF92EF92FF92F2
:100640004B015C010E94F3026B017C010E94F302EA
:100650006C197D098E099F09683E734081059105DB
:10066000A8F321E0821A9108A108B10888EEC80E0B
:1006700083E0D81EE11CF11C81149104A104B10493
:1006800029F7FF90EF90DF90CF90BF90AF909F90B1
:100690008F900895089590E080E00895FC01019006
:1006A0000020E9F73197AF01481B590BBC018AE9DB
:1006B00092E00C941F01CF93DF93EC0160E08E81F8
:1006C0000E94810261E08E810E94810260E08E8141
:1006D0000E9481028BE891E00197F1F7DF91CF91C1
:1006E0000895CF92DF92EF92FF920F931F93CF93D3
:1006F000DF936C017C0187E0E80EF11CD0E0C0E0E4
:10070000062F10E0B8010C2E02C0759567950A946B
:10071000E2F76170F70181917F010E9481022196C9
:10072000C430D10579F7C601DF91CF911F910F91A8
:10073000FF90EF90DF90CF900C945B03CF92DF920D
:10074000EF92FF920F931F93CF93DF93EC01F62E5E
:10075000642F8C810E9481028D818F3F19F060E0AF
:100760000E9481020F2D10E08F8584FF25C06E014D
:1007700087E0C80ED11CF12CE12CB8010E2C02C070
:10078000759567950A94E2F76170F60181916F01A2
:100790000E948102FFEFEF1AFF0A88E0E816F104D9
:1007A00061F7CE01DF91CF911F910F91FF90EF90F4
:1007B000DF90CF900C945B03B80184E0759567954A
:1007C0008A95E1F7CE010E9471036F2DCE01DF9172
:1007D000CF911F910F91FF90EF90DF90CF900C94ED
:1007E000710340E0682F8AE992E00C949E0381E057
:1007F0000E94F1038BE39FE10197F1F70895CF93F6
:10080000DF93823029F49091A90298609093A90215
:100810008093AD021092AE0280E48093AF0280E13B
:100820008093B00280E58093B10261E080919E02E6
:100830000E94B30280919F028F3F19F061E00E94F5
:10084000B30261E08091A0020E94B302CAE9D2E043
:100850009E012A5932408091A90284FD0BC084E098
:1008600090E021962817390744F461E08E810E94B8
:10087000B302EECF88E090E0F4CF8BE39DE00197E8
:10088000F1F760E080919E020E94810260E0809119
:10089000A0020E94810280919F028F3F19F060E0C8
:1008A0000E9481028091A90284FD34C063E08AE93C
:1008B00092E00E947103CBE4D6E4CE010197F1F7F8
:1008C00063E08AE992E00E9471032197F1F763E007
:1008D0008AE992E00E94710383E592E00197F1F7C3
:1008E00062E08AE992E00E9471038091A90280622D
:1008F0000E94F10384E08093AA028CE00E94F1033D
:100900000E94F70382E08093AB0286E0DF91CF91F3
:100910000C94F10380620E94F1038BE496E401974A
:10092000F1F78091A90280620E94F10383E592E0D1
:100930000197F1F78091A90280620E94F103D5CF5F
:100940009091AD02691710F06FEF690FE62FF0E09C
:10095000E656FD4F9489890F80680C94F10341E0BD
:100960000E949E0381E090E008951F920F920FB6BF
:100970000F9211242F933F934F935F936F937F9325
:100980008F939F93AF93BF93EF93FF938EE891E084
:100990000E949D01FF91EF91BF91AF919F918F9127
:1009A0007F916F915F914F913F912F910F900FBE6B
:1009B0000F901F9018951F920F920FB60F9211244F
:1009C0002F938F939F93EF93FF93E0919E01F0916C
:1009D0009F018081E091A401F091A50182FD1BC0DF
:1009E00090818091A7018F5F8F732091A80182175A
:1009F00041F0E091A701F0E0E257FE4F958F809320
:100A0000A701FF91EF919F918F912F910F900FBEB2
:100A10000F901F9018958081F4CF1F920F920FB600
:100A20000F9211242F933F938F939F93AF93BF9374
:100A300080918A0190918B01A0918C01B0918D01E0
:100A400030917A0123E0230F2D3758F50196A11D2F
:100A5000B11D20937A0180938A0190938B01A0931A
:100A60008C01B0938D0180917B0190917C01A091CC
:100A70007D01B0917E010196A11DB11D80937B0186
:100A800090937C01A0937D01B0937E01BF91AF91C3
:100A90009F918F913F912F910F900FBE0F901F90BC
:100AA000189526E8230F0296A11DB11DD2CF1092F2
:100AB00091011092900188EE93E0A0E0B0E0809365
:100AC000920190939301A0939401B09395018FE1CB
:100AD00091E090938F0180938E0185EC90E090934C
:100AE0009B0180939A0184EC90E090939D01809308
:100AF0009C0180EC90E090939F0180939E0181EC9B
:100B000090E09093A1018093A00182EC90E09093FB
:100B1000A3018093A20186EC90E09093A5018093BD
:100B2000A4011092A7011092A8011092A90110929D
:100B3000AA0110929D0210929C028BE391E0909387
:100B40009B0280939A028CE080939E028FEF8093A9
:100B50009F028BE08093A00285E08093A10284E055
:100B60008093A20283E08093A30282E08093A40298
:100B70001092A5021092A6021092A7021092A8024B
:100B80001092A90281E00E94FF0310922D021092A0
:100B90003102109230021092320281E391E0909380
:100BA0002C0280932B02E7E4F2E01082148213827D
:100BB0001582369682E0E338F807B9F783E091E0D2
:100BC00090938E0280938D0280E091E0909390024A
:100BD00080938F0284E08093910283E0809392025D
:100BE00087E091E090938C0280938B028AE090E002
:100BF000909394028093930284EF91E090939602F5
:100C00008093950210929902109298021092870296
:100C1000109288021092890210928A021092970212
:100C20000895789484B5826084BD84B5816084BD64
:100C300085B5826085BD85B5816085BD80916E007A
:100C4000816080936E0010928100809181008260AB
:100C500080938100809181008160809381008091E8
:100C600080008160809380008091B10084608093D7
:100C7000B1008091B00081608093B00080917A00D3
:100C8000846080937A0080917A00826080937A00F9
:100C900080917A00816080937A0080917A008068E8
:100CA00080937A001092C100E0919E01F0919F0123
:100CB00082E08083E0919A01F0919B011082E091A3
:100CC0009C01F0919D018FEC80831092A601E09130
:100CD000A201F091A30186E08083E091A001F09150
:100CE000A101808180618083E091A001F091A10148
:100CF000808188608083E091A001F091A1018081D2
:100D000080688083E091A001F091A10180818F7DB6
:100D1000808382E00E94FF0383E491E00E944E03FF
:100D2000412C512C3201439422242A94322C50E03D
:100D3000C52E50E0D52E21E0209397028FB7F8946E
:100D400040918A0150918B0160918C0170918D01CD
:100D50008FBF8091870290918802A0918902B09103
:100D60008A02481B590B6A0B7B0B8091930290916E
:100D70009402B0E0A0E084179507A607B70708F033
:100D80003EC1C0E080919102C81760F4E0918D02ED
:100D9000F0918E02EC0FF11D62E080810E94B3029F
:100DA000CF5FF0CF912C80919202981608F05FC02F
:100DB000092D10E0E0918F02F0919002E00FF11FF9
:100DC00061E080810E94B302E0918F02F091900275
:100DD000E00FF11F60E080810E948102D301C20117
:100DE000092C04C0880F991FAA1FBB1F0A94D2F7B1
:100DF0005C017C01E094F094812C80919102881632
:100E0000F8F4C82DD0E0E0918D02F0918E02EC0F45
:100E1000FD1F80810E9455022496CC0FDD1FC55D09
:100E2000DD4F892B41F4888199818A299B299983F7
:100E300088838394E2CF888199818E219F21F7CF87
:100E4000E0918F02F0919002E00FF11F61E080814C
:100E50000E94810280918F0290919002080F191FC9
:100E600060E0F80180810E94B30293949CCFCBE2B2
:100E7000D2E0FE01878D90A1892B21F4148E368E4D
:100E8000258E11A2369622E0E736F20799F710E098
:100E900080919102181708F053C000E0E12EF12C68
:100EA000EE0CFF1CC7018D5C9D4F7C0120919202CE
:100EB000021708F043C0F70160817181002E02C063
:100EC000769567950A94E2F7129F90011124200FFE
:100ED000311DEBE2F2E080E0458D568D2417350799
:100EE00009F4EAC08F5F36968A30B1F760FF24C0FC
:100EF000EBE2F2E090E080E0448D411118C0E09117
:100F00008B02F0918C02E20FF31F408156E0589F54
:100F1000F001599FF00D1124E55DFD4F448F368F90
:100F2000258F10A2178E61E00E94AF0005C00196C8
:100F300036968A30910501F70F5FB8CF1F5FA8CFB3
:100F400080E099A19111892F269692E0C736D907A2
:100F5000C1F79FB7F89440918A0150918B0160913D
:100F60008C0170918D019FBF40938702509388023E
:100F70006093890270938A02882309F440C08091AB
:100F80004C028823E1F180914A0290914B02019733
:100F9000B1F5C0914702C1330CF03FC0C33289F5AF
:100FA0008091880190918901079709F070C0809124
:100FB0007F0190918001E1E8F1E0A3E1B1E031919E
:100FC0002D91321301C0019621E0E838F207B9F7FC
:100FD0009093800180937F010797D1F50E94F703DA
:100FE00060E080E00E94A00484E591E00E944E034E
:100FF00060ED77E080E090E00E94180302C010925C
:101000009702C114D10409F496CE0E948901882365
:1010100009F491CE0E9400008ECE61E0809188019B
:101020000E94A00441E050E062E571E08AE992E0AC
:101030000E941F018091880190918901FC01EF5766
:10104000FE4FC08301969093890180938801D9CF88
:101050000E94F70360E080E00E94A0048EE591E02A
:101060000E944E0364EF71E080E090E00E9418035C
:101070000E94F70383E491E00E944E0361E080E068
:101080000E94A0041092890110928801BACF0E9498
:10109000F70360E080E00E94A0048AE691E00E94ED
:1010A0004E0364EF71E080E090E00E94180360E07E
:1010B00080E00E94A004DECF617036CFEE0FFF1FEC
:1010C0000590F491E02D0994F894FFCF0E0F1011C4
:1010D0001213063132333435363738392A3023315A
:1010E0003233343536390000000000BF011F014C97
:1010F000010C027D015B016F0100000000EF02AFF7
:10110000027E0200000000AF041F014B034A03658A
:101110006E746572207468652070617373002A00B4
:10112000636F72726563742020006E6F7420636F4A
:101130007272656374006E6F7420636F72726563A0
:06114000742020200000D5
:107E0000112484B714BE81FFF0D085E080938100F7
:107E100082E08093C00088E18093C10086E0809377
:107E2000C20080E18093C4008EE0C9D0259A86E02C
:107E300020E33CEF91E0309385002093840096BBD3
:107E4000B09BFECF1D9AA8958150A9F7CC24DD24C4
:107E500088248394B5E0AB2EA1E19A2EF3E0BF2EE7
:107E6000A2D0813461F49FD0082FAFD0023811F036
:107E7000013811F484E001C083E08DD089C08234E0
:107E800011F484E103C0853419F485E0A6D080C0E4
:107E9000853579F488D0E82EFF2485D0082F10E0AE
:107EA000102F00270E291F29000F111F8ED06801E7
:107EB0006FC0863521F484E090D080E0DECF843638
:107EC00009F040C070D06FD0082F6DD080E0C81688
:107ED00080E7D80618F4F601B7BEE895C0E0D1E017
:107EE00062D089930C17E1F7F0E0CF16F0E7DF06D8
:107EF00018F0F601B7BEE89568D007B600FCFDCFD4
:107F0000A601A0E0B1E02C9130E011968C91119780
:107F100090E0982F8827822B932B1296FA010C0160
:107F200087BEE89511244E5F5F4FF1E0A038BF0790
:107F300051F7F601A7BEE89507B600FCFDCF97BE46
:107F4000E89526C08437B1F42ED02DD0F82E2BD052
:107F50003CD0F601EF2C8F010F5F1F4F84911BD097
:107F6000EA94F801C1F70894C11CD11CFA94CF0C13
:107F7000D11C0EC0853739F428D08EE10CD085E9AC
:107F80000AD08FE07ACF813511F488E018D01DD067
:107F900080E101D065CF982F8091C00085FFFCCF94
:107FA0009093C60008958091C00087FFFCCF809118
:107FB000C00084FD01C0A8958091C6000895E0E648
:107FC000F0E098E1908380830895EDDF803219F02E
:107FD00088E0F5DFFFCF84E1DECF1F93182FE3DFCA
:107FE0001150E9F7F2DF1F91089580E0E8DFEE27F6
:047FF000FF270994CA
:027FFE00040479
:00000001FF
