:100000000C945D000C9485000C9485000C94850084
:100010000C9485000C9485000C9485000C9485004C
:100020000C9485000C9485000C9485000C9485003C
:100030000C9485000C9485000C9485000C9485002C
:100040000C9466020C9485000C9434020C940E02FD
:100050000C9485000C9485000C9485000C9485000C
:100060000C9485000C9485000000000024002700FB
:100070002A0000000000250028002B0004040404CE
:100080000404040402020202020203030303030342
:10009000010204081020408001020408102001021F
:1000A00004081020000000080002010000030407FB
:1000B00000000000000000000C0411241FBECFEF60
:1000C000D8E0DEBFCDBF11E0A0E0B1E0E8EDFCE09C
:1000D00002C005900D92A632B107D9F721E0A6E241
:1000E000B1E001C01D92A03DB207E1F710E0CDE5FF
:1000F000D0E004C02197FE010E946406CC35D107F0
:10010000C9F70E94B0020C946A060C940000ECEA55
:10011000F0E02491E8E9F0E09491E4E8F0E0E49183
:10012000EE23C9F0222339F0233001F1A8F4213065
:1001300019F1223029F1F0E0EE0FFF1FEE58FF4FCA
:10014000A591B4912FB7F894EC91811126C09095A8
:100150009E239C932FBF08952730A9F02830C9F023
:10016000243049F7209180002F7D03C0209180002A
:100170002F7720938000DFCF24B52F7724BDDBCFEE
:1001800024B52F7DFBCF2091B0002F772093B000B6
:10019000D2CF2091B0002F7DF9CF9E2BDACFAF9236
:1001A000BF92CF92DF92EF92FF920F931F93CF9364
:1001B000DF936C017B018B01040F151FEB015E01C6
:1001C000AE18BF08C017D10759F06991D601ED915B
:1001D000FC910190F081E02DC6010995892B79F7FA
:1001E000C501DF91CF911F910F91FF90EF90DF90AC
:1001F000CF90BF90AF900895FC01538D448D252F73
:1002000030E0842F90E0821B930B541710F0CF96B0
:10021000089501970895FC01918D828D981761F0E2
:10022000A28DAE0FBF2FB11D5D968C91928D9F5FF9
:100230009F73928F90E008958FEF9FEF0895FC01D8
:10024000918D828D981731F0828DE80FF11D858D8B
:1002500090E008958FEF9FEF0895FC01918D228D1E
:10026000892F90E0805C9F4F821B91098F739927A3
:10027000089583E391E00E942D0121E0892B09F488
:1002800020E0822F089580E090E0892B29F00E94E1
:10029000390181110C9400000895FC01A48DA80F70
:1002A000B92FB11DA35ABF4F2C91848D90E00196B8
:1002B0008F739927848FA689B7892C93A089B189D8
:1002C0008C91837080648C93938D848D981306C079
:1002D0000288F389E02D80818F7D80830895EF92DD
:1002E000FF920F931F93CF93DF93EC0181E0888FF0
:1002F0009B8D8C8D98131AC0E889F989808185FFC0
:1003000015C09FB7F894EE89FF896083E889F98961
:1003100080818370806480839FBF81E090E0DF9163
:10032000CF911F910F91FF90EF900895F62E0B8DB6
:1003300010E00F5F1F4F0F731127E02E8C8D8E1171
:100340000CC00FB607FCFACFE889F989808185FFD8
:10035000F5CFCE010E944D01F1CFEB8DEC0FFD2FBB
:10036000F11DE35AFF4FF0829FB7F8940B8FEA8993
:10037000FB8980818062CFCFCF93DF93EC01888DA2
:100380008823B9F0AA89BB89E889F9898C9185FD10
:1003900003C0808186FD0DC00FB607FCF7CF8C919E
:1003A00085FFF2CF808185FFEDCFCE010E944D0108
:1003B000E9CFDF91CF9108953FB7F89480912B0159
:1003C00090912C01A0912D01B0912E0126B5A89BF2
:1003D00005C02F3F19F00196A11DB11D3FBFBA2FD7
:1003E000A92F982F8827BC01CD01620F711D811D97
:1003F000911D42E0660F771F881F991F4A95D1F71C
:100400000895FC0101900020E9F73197AF01481BE6
:10041000590BBC0183E391E00C94CF001F920F9223
:100420000FB60F9211242F933F934F935F936F93C7
:100430007F938F939F93AF93BF93EF93FF9383E348
:1004400091E00E944D01FF91EF91BF91AF919F917B
:100450008F917F916F915F914F913F912F910F906D
:100460000FBE0F901F9018951F920F920FB60F920C
:1004700011242F938F939F93EF93FF93E091430168
:10048000F09144018081E0914901F0914A0182FD9F
:100490001BC0908180914C018F5F8F7320914D0123
:1004A000821741F0E0914C01F0E0ED5CFE4F958F3A
:1004B00080934C01FF91EF919F918F912F910F901D
:1004C0000FBE0F901F9018958081F4CF1F920F924E
:1004D0000FB60F9211242F933F938F939F93AF9357
:1004E000BF938091270190912801A0912901B0919B
:1004F0002A013091260123E0230F2D3758F501966C
:10050000A11DB11D209326018093270190932801FE
:10051000A0932901B0932A0180912B0190912C0185
:10052000A0912D01B0912E010196A11DB11D8093C6
:100530002B0190932C01A0932D01B0932E01BF911C
:10054000AF919F918F913F912F910F900FBE0F9080
:100550001F90189526E8230F0296A11DB11DD2CF3A
:10056000CF93DF93CDB7DEB7A1970FB6F894DEBF78
:100570000FBECDBF789484B5826084BD84B58160A0
:1005800084BD85B5826085BD85B5816085BD80915E
:100590006E00816080936E001092810080918100D6
:1005A00082608093810080918100816080938100CE
:1005B000809180008160809380008091B100846090
:1005C0008093B1008091B00081608093B0008091F1
:1005D0007A00846080937A0080917A0082608093B0
:1005E0007A0080917A00816080937A0080917A000D
:1005F000806880937A001092C100E0914301F091ED
:10060000440182E08083E0913F01F091400110823B
:10061000E0914101F09142018FEC808310924B01F7
:10062000E0914701F091480186E08083E091450127
:10063000F0914601808180618083E0914501F091D5
:100640004601808188608083E0914501F0914601F8
:10065000808180688083E0914501F091460180812E
:100660008F7D8083E8E9F0E02491E4E8F0E0849174
:10067000882399F090E0880F991FFC01E859FF4FFB
:10068000A591B491FC01EE58FF4F859194918FB7DD
:10069000F894EC91E22BEC938FBF90E4392E2AE092
:1006A000822E912CA12CB12C00E010E030927C0025
:1006B00080917A00806480937A0080917A0086FD30
:1006C000FCCF8091780060917900762F682F072EFB
:1006D000000C880B990B0E94490520E030EC4FE795
:1006E00054E40E94A60420E030E040EA50E40E9476
:1006F000D5052B013C0120E030E04AE754E40E949C
:10070000D5056B017C01A301920160E070E080EAF5
:1007100090E40E9439049B01AC01C701B6010E941C
:10072000A6040E94180560932F01709330018093F6
:1007300031019093320182E191E00E940102209107
:100740002F0130913001409131015091320119A2B5
:100750007E0181E2E80EF11CCA01B901A5019401F4
:100760000E944206605DF70162937F012115310509
:100770004105510589F7309719F0CF010E94010218
:1007800082E291E00E94010280912F01909130015C
:10079000A0913101B0913201883EF3E09F07A1059D
:1007A000B10598F581E00E9487000E94DC016B0191
:1007B0007C0184E6482E512C612C712C0E94DC01B6
:1007C0006C197D098E099F09683E7340810591056A
:1007D000A8F381E0481A510861087108E8EECE0ECE
:1007E000E3E0DE1EE11CF11C4114510461047104BC
:1007F00029F70115110509F459CF0E943901882301
:1008000009F454CF0E94000051CF883E9340A105C7
:10081000B10559F280E0C7CFE3E3F1E01382128221
:1008200088EE93E0A0E0B0E084839583A683B7834D
:1008300084E091E09183808385EC90E095878487C4
:1008400084EC90E09787868780EC90E0918B808B9A
:1008500081EC90E0938B828B82EC90E0958B848B83
:1008600086EC90E0978B868B118E128E138E148EF1
:1008700008955058BB27AA270E9451040C949B0549
:100880000E948D0538F00E94940520F039F49F3FB6
:1008900019F426F40C948A050EF4E095E7FB0C9409
:1008A0008405E92F0E94AC0558F3BA176207730755
:1008B0008407950720F079F4A6F50C94CE050EF484
:1008C000E0950B2EBA2FA02D0B01B90190010C0160
:1008D000CA01A0011124FF27591B99F0593F50F478
:1008E000503E68F11A16F040A22F232F342F4427D0
:1008F000585FF3CF469537952795A795F0405395C8
:10090000C9F77EF41F16BA0B620B730B840BBAF097
:100910009150A1F0FF0FBB1F661F771F881FC2F702
:100920000EC0BA0F621F731F841F48F48795779516
:100930006795B795F7959E3F08F0B0CF9395880FD0
:1009400008F09927EE0F9795879508950E94BA04AD
:100950000C949B050E94940558F00E948D0540F070
:1009600029F45F3F29F00C94840551110C94CF05B4
:100970000C948A050E94AC0568F39923B1F35523C2
:1009800091F3951B550BBB27AA27621773078407A2
:1009900038F09F5F5F4F220F331F441FAA1FA9F338
:1009A00035D00E2E3AF0E0E832D091505040E69526
:1009B000001CCAF72BD0FE2F29D0660F771F881F87
:1009C000BB1F261737074807AB07B0E809F0BB0B7A
:1009D000802DBF01FF2793585F4F3AF09E3F51058E
:1009E00078F00C9484050C94CF055F3FE4F3983EB7
:1009F000D4F3869577956795B795F7959F5FC9F777
:100A0000880F911D9695879597F90895E1E0660FF7
:100A1000771F881FBB1F621773078407BA0720F070
:100A2000621B730B840BBA0BEE1F88F7E0950895D9
:100A30000E94B40588F09F5798F0B92F9927B751B5
:100A4000B0F0E1F0660F771F881F991F1AF0BA9572
:100A5000C9F714C0B13091F00E94CE05B1E00895FD
:100A60000C94CE05672F782F8827B85F39F0B93FEF
:100A7000CCF3869577956795B395D9F73EF4909525
:100A80008095709561957F4F8F4F9F4F0895E894A3
:100A900009C097FB3EF490958095709561957F4FC6
:100AA0008F4F9F4F9923A9F0F92F96E9BB27939574
:100AB000F695879577956795B795F111F8CFFAF484
:100AC000BB0F11F460FF1BC06F5F7F4F8F4F9F4FB5
:100AD00016C0882311F096E911C0772321F09EE813
:100AE000872F762F05C0662371F096E8862F70E079
:100AF00060E02AF09A95660F771F881FDAF7880F53
:100B00009695879597F9089597F99F6780E870E023
:100B100060E008959FEF80EC089500240A94161673
:100B2000170618060906089500240A9412161306DB
:100B3000140605060895092E0394000C11F4882369
:100B400052F0BB0F40F4BF2B11F460FF04C06F5F85
:100B50007F4F8F4F9F4F089557FD9058440F551F5B
:100B600059F05F3F71F04795880F97FB991F61F02F
:100B70009F3F79F087950895121613061406551FA6
:100B8000F2CF4695F1DF08C0161617061806991F12
:100B9000F1CF86957105610508940895E894BB2707
:100BA00066277727CB0197F908950E94E8050C94F2
:100BB0009B050E948D0538F00E94940520F0952336
:100BC00011F00C9484050C948A0511240C94CF0523
:100BD0000E94AC0570F3959FC1F3950F50E0551F2F
:100BE000629FF001729FBB27F00DB11D639FAA2782
:100BF000F00DB11DAA1F649F6627B00DA11D661FD1
:100C0000829F2227B00DA11D621F739FB00DA11DF1
:100C1000621F839FA00D611D221F749F3327A00DAB
:100C2000611D231F849F600D211D822F762F6A2F47
:100C300011249F5750409AF0F1F088234AF0EE0FAC
:100C4000FF1FBB1F661F771F881F91505040A9F7D9
:100C50009E3F510580F00C9484050C94CF055F3FB6
:100C6000E4F3983ED4F3869577956795B795F79515
:100C7000E7959F5FC1F7FE2B880F911D969587958D
:100C800097F90895A1E21A2EAA1BBB1BFD010DC006
:100C9000AA1FBB1FEE1FFF1FA217B307E407F5072C
:100CA00020F0A21BB30BE40BF50B661F771F881F08
:100CB000991F1A9469F760957095809590959B019E
:100CC000AC01BD01CF010895EE0FFF1F0590F49117
:080CD000E02D0994F894FFCF18
:100CD800000000006F01CF00FC00BC012D010B01DA
:100CE8001F0174686520726573697374616E63654A
:060CF8003A000D0A0000A5
:00000001FF
