:100000000C945D000C9485000C9485000C94850084
:100010000C9485000C9485000C9485000C9485004C
:100020000C9485000C9485000C9485000C9485003C
:100030000C9485000C9485000C9485000C9485002C
:100040000C948C020C9485000C9485000C94850013
:100050000C9485000C9485000C9485000C9485000C
:100060000C9485000C94850000000008000201003B
:100070000003040700000000000000000000000072
:10008000250028002B0000000000240027002A0083
:10009000040404040404040402020202020203032E
:1000A0000303030301020408102040800102040836
:1000B0001020010204081020FE0311241FBECFEF00
:1000C000D8E0DEBFCDBF11E0A0E0B1E0EEEEFAE097
:1000D00002C005900D92A032B107D9F721E0A0E24D
:1000E000B1E001C01D92A334B207E1F710E0CDE505
:1000F000D0E004C02197FE010E946F05CC35D107E6
:10010000C9F70E94D6020C9475050C94000090E08B
:10011000FC01EC55FF4F249180579F4FFC018491C7
:10012000882399F090E0880F991FFC01EA57FF4F50
:10013000A591B491FC01E458FF4F859194918FB73C
:10014000F894EC91E22BEC938FBF0895AF92BF929D
:10015000CF92DF92EF92FF920F931F93CF93DF9393
:100160006C017B018B01040F151FEB015E01AE18C2
:10017000BF08C017D10759F06991D601ED91FC91E4
:100180000190F081E02DC6010995892B79F7C50111
:10019000DF91CF911F910F91FF90EF90DF90CF9063
:1001A000BF90AF90089590E0FC01E859FF4F249173
:1001B000FC01EC55FF4F3491FC01E057FF4FE491F7
:1001C000EE23C9F0222339F0233001F1A8F42130C5
:1001D00019F1223029F1F0E0EE0FFF1FE458FF4F34
:1001E000A591B4918FB7F894EC91611126C0309528
:1001F0003E233C938FBF08952730A9F02830C9F0E3
:10020000243049F7809180008F7D03C08091800069
:100210008F7780938000DFCF84B58F7784BDDBCF6D
:1002200084B58F7DFBCF8091B0008F778093B00035
:10023000D2CF8091B0008F7DF9CF3E2BDACF3FB780
:10024000F8948091250190912601A0912701B09109
:10025000280126B5A89B05C02F3F19F00196A11DC6
:10026000B11D3FBFBA2FA92F982F8827BC01CD0100
:10027000620F711D811D911D42E0660F771F881F5F
:10028000991F4A95D1F70895089590E080E0089568
:10029000CF93DF93EC0160E08E810E94D30061E098
:1002A0008E810E94D30060E08E810E94D3008BE893
:1002B00091E00197F1F7DF91CF910895CF92DF920E
:1002C000EF92FF920F931F93CF93DF936C017C010A
:1002D00087E0E80EF11CD0E0C0E0062F10E0B80186
:1002E0000C2E02C0759567950A94E2F76170F701CC
:1002F00081917F010E94D3002196C430D10579F706
:10030000C601DF91CF911F910F91FF90EF90DF9089
:10031000CF900C944801CF92DF92EF92FF920F930F
:100320001F93CF93DF93EC01F62E642F8C810E94F4
:10033000D3008D818F3F19F060E00E94D3000F2D14
:1003400010E08F8584FF25C06E0187E0C80ED11CA8
:10035000F12CE12CB8010E2C02C0759567950A941A
:10036000E2F76170F60181916F010E94D300FFEF07
:10037000EF1AFF0A88E0E816F10461F7CE01DF9179
:10038000CF911F910F91FF90EF90DF90CF900C9441
:100390004801B80184E0759567958A95E1F7CE012B
:1003A0000E945E016F2DCE01DF91CF911F910F91C1
:1003B000FF90EF90DF90CF900C945E0140E0682FAB
:1003C0008BE291E00C948B01CF93DF93823029F480
:1003D00090913A01986090933A0180933E01109277
:1003E0003F0180E48093400180E18093410180E5FA
:1003F0008093420180912F010E94870080913001FB
:100400008F3F11F00E948700809131010E94870088
:10041000CBE2D1E09E012B52314080913A0184FD24
:100420000AC084E090E02196281739073CF48E81B9
:100430000E948700EFCF88E090E0F5CF8BE39DE04E
:100440000197F1F760E080912F010E94D30060E0F6
:10045000809131010E94D300809130018F3F19F0CB
:1004600060E00E94D30080913A0184FD39C063E0CE
:100470008BE291E00E945E01CBE4D6E4CE010197CD
:10048000F1F763E08BE291E00E945E012197F1F7C2
:1004900063E08BE291E00E945E0183E592E00197C8
:1004A000F1F762E08BE291E00E945E0180913A01F7
:1004B00080620E94DE0184E080933B018CE00E9418
:1004C000DE0181E00E94DE018BE39FE10197F1F7FD
:1004D00082E080933C0186E0DF91CF910C94DE01B5
:1004E00080620E94DE018BE496E40197F1F780912F
:1004F0003A0180620E94DE0183E592E00197F1F704
:1005000080913A0180620E94DE01D0CF41E00E94DA
:100510008B0181E090E008951F920F920FB60F9229
:1005200011242F933F938F939F93AF93BF93809109
:10053000210190912201A0912301B09124013091D9
:10054000200123E0230F2D3758F50196A11DB11D81
:10055000209320018093210190932201A0932301F5
:10056000B09324018091250190912601A09127014B
:10057000B09128010196A11DB11D80932501909392
:100580002601A0932701B0932801BF91AF919F91BD
:100590008F913F912F910F900FBE0F901F90189544
:1005A00026E8230F0296A11DB11DD2CFCF93DF9372
:1005B000CDB7DEB7A1970FB6F894DEBF0FBECDBFA3
:1005C000789484B5826084BD84B5816084BD85B52E
:1005D000826085BD85B5816085BD80916E0081603A
:1005E00080936E00109281008091810082608093E0
:1005F00081008091810081608093810080918000E2
:100600008160809380008091B10084608093B1000C
:100610008091B00081608093B00080917A00846006
:1006200080937A0080917A00826080937A00809132
:100630007A00816080937A0080917A00806880934C
:100640007A001092C10082E00E94E4014FE050E085
:100650006CE071E08BE291E00E94A60090E4392EFC
:100660002AE0822E912CA12CB12C00E010E03092D7
:100670007C0080917A00806480937A0080917A0077
:1006800086FDFCCF8091780060917900762F682FED
:10069000072E000C880B990B0E9454042AE038E2C4
:1006A00040EA5BE30E94B80420E030E048EC52E40A
:1006B0000E94B8040E941C046B0170932A0160938D
:1006C0002901E0913E01E23008F07EC0E150F0E007
:1006D000E55DFE4F848980680E94DE010D2C000CD0
:1006E000EE08FF08F7FE72C041E06DE28BE291E098
:1006F0000E948B0122273327A9012C193D094E099D
:100700005F0919A2CE0181967C01CA01B901A50138
:1007100094010E944D05605DF70162937F012115F0
:1007200031054105510589F7E114F10461F00190AB
:100730000020E9F73197AF014E195F09B7018BE24D
:1007400091E00E94A600E0913E01E23008F054C022
:10075000E150F0E0E55DFE4F84898D5F80680E9486
:10076000DE0142E050E06CE171E08BE291E00E943A
:10077000A6000E941F016B017C0184E6482E512CCB
:10078000612C712C0E941F016C197D098E099F0933
:10079000683E734081059105A8F3F1E04F1A5108B6
:1007A0006108710828EEC20E23E0D21EE11CF11C84
:1007B000411451046104710429F70115110509F46C
:1007C00056CF0E94000053CFE1E081CFA7019601F0
:1007D00019A2CE0181967C01CA01B901A50194013B
:1007E0000E944D05605DF70162937F01211531057F
:1007F0004105510589F798CFE1E0ABCFEBE2F1E09D
:100800001382128284E091E0918380838CE0848360
:100810008FEF85838BE0868385E0878384E0808704
:1008200083E0818782E08287138614861586168688
:10083000178681E00C94E4010E9423046894B111AE
:100840000C94B20408950E94970488F09F5798F082
:10085000B92F9927B751B0F0E1F0660F771F881FC5
:10086000991F1AF0BA95C9F714C0B13091F00E94DF
:10087000B104B1E008950C94B104672F782F882754
:10088000B85F39F0B93FCCF3869577956795B39506
:10089000D9F73EF490958095709561957F4F8F4F75
:1008A0009F4F0895E89409C097FB3EF4909580957A
:1008B000709561957F4F8F4F9F4F9923A9F0F92F26
:1008C00096E9BB279395F695879577956795B795A4
:1008D000F111F8CFFAF4BB0F11F460FF1BC06F5F8A
:1008E0007F4F8F4F9F4F16C0882311F096E911C09C
:1008F000772321F09EE8872F762F05C0662371F0BD
:1009000096E8862F70E060E02AF09A95660F771FD0
:10091000881FDAF7880F9695879597F9089557FD00
:100920009058440F551F59F05F3F71F04795880F5D
:1009300097FB991F61F09F3F79F0879508951216F4
:1009400013061406551FF2CF4695F1DF08C01616A0
:1009500017061806991FF1CF869571056105089451
:100960000895E894BB2766277727CB0197F9089568
:100970000E94CB040C943C050E942E0538F00E9486
:10098000350520F0952311F00C9425050C942B05CA
:1009900011240C94B2040E948F0470F3959FC1F34C
:1009A000950F50E0551F629FF001729FBB27F00D1D
:1009B000B11D639FAA27F00DB11DAA1F649F662772
:1009C000B00DA11D661F829F2227B00DA11D621FC1
:1009D000739FB00DA11D621F839FA00D611D221F7B
:1009E000749F3327A00D611D231F849F600D211D5F
:1009F000822F762F6A2F11249F5750409AF0F1F0E2
:100A000088234AF0EE0FFF1FBB1F661F771F881F4A
:100A100091505040A9F79E3F510580F00C94250558
:100A20000C94B2045F3FE4F3983ED4F38695779537
:100A30006795B795F795E7959F5FC1F7FE2B880FF0
:100A4000911D9695879597F9089597F99F6780E886
:100A500070E060E008959FEF80EC089500240A9410
:100A60001616170618060906089500240A94121689
:100A70001306140605060895092E0394000C11F4BC
:100A8000882352F0BB0F40F4BF2B11F460FF04C069
:100A90006F5F7F4F8F4F9F4F0895A1E21A2EAA1BC1
:100AA000BB1BFD010DC0AA1FBB1FEE1FFF1FA2171E
:100AB000B307E407F50720F0A21BB30BE40BF50B1B
:100AC000661F771F881F991F1A9469F760957095A4
:100AD000809590959B01AC01BD01CF010895EE0F6B
:0E0AE000FF1F0590F491E02D0994F894FFCFCC
:100AEE00000000008602A6004501440174686520DE
:100AFE0054656D7065726174757265002A630000CD
:00000001FF
